{
  "_format": "hh-sol-artifact-1",
  "contractName": "NFTMarket",
  "sourceName": "contracts/NFTMarket.sol",
  "abi": [
    {
      "inputs": [],
      "stateMutability": "nonpayable",
      "type": "constructor"
    },
    {
      "anonymous": false,
      "inputs": [
        {
          "indexed": true,
          "internalType": "address",
          "name": "owner",
          "type": "address"
        },
        {
          "indexed": true,
          "internalType": "address",
          "name": "approved",
          "type": "address"
        },
        {
          "indexed": true,
          "internalType": "uint256",
          "name": "tokenId",
          "type": "uint256"
        }
      ],
      "name": "Approval",
      "type": "event"
    },
    {
      "anonymous": false,
      "inputs": [
        {
          "indexed": true,
          "internalType": "address",
          "name": "owner",
          "type": "address"
        },
        {
          "indexed": true,
          "internalType": "address",
          "name": "operator",
          "type": "address"
        },
        {
          "indexed": false,
          "internalType": "bool",
          "name": "approved",
          "type": "bool"
        }
      ],
      "name": "ApprovalForAll",
      "type": "event"
    },
    {
      "anonymous": false,
      "inputs": [
        {
          "indexed": true,
          "internalType": "bytes32",
          "name": "role",
          "type": "bytes32"
        },
        {
          "indexed": true,
          "internalType": "bytes32",
          "name": "previousAdminRole",
          "type": "bytes32"
        },
        {
          "indexed": true,
          "internalType": "bytes32",
          "name": "newAdminRole",
          "type": "bytes32"
        }
      ],
      "name": "RoleAdminChanged",
      "type": "event"
    },
    {
      "anonymous": false,
      "inputs": [
        {
          "indexed": true,
          "internalType": "bytes32",
          "name": "role",
          "type": "bytes32"
        },
        {
          "indexed": true,
          "internalType": "address",
          "name": "account",
          "type": "address"
        },
        {
          "indexed": true,
          "internalType": "address",
          "name": "sender",
          "type": "address"
        }
      ],
      "name": "RoleGranted",
      "type": "event"
    },
    {
      "anonymous": false,
      "inputs": [
        {
          "indexed": true,
          "internalType": "bytes32",
          "name": "role",
          "type": "bytes32"
        },
        {
          "indexed": true,
          "internalType": "address",
          "name": "account",
          "type": "address"
        },
        {
          "indexed": true,
          "internalType": "address",
          "name": "sender",
          "type": "address"
        }
      ],
      "name": "RoleRevoked",
      "type": "event"
    },
    {
      "anonymous": false,
      "inputs": [
        {
          "indexed": true,
          "internalType": "address",
          "name": "owner",
          "type": "address"
        },
        {
          "indexed": true,
          "internalType": "uint256",
          "name": "tokenId",
          "type": "uint256"
        },
        {
          "indexed": false,
          "internalType": "string",
          "name": "tokenURI",
          "type": "string"
        }
      ],
      "name": "TokenMinted",
      "type": "event"
    },
    {
      "anonymous": false,
      "inputs": [
        {
          "indexed": true,
          "internalType": "address",
          "name": "from",
          "type": "address"
        },
        {
          "indexed": true,
          "internalType": "address",
          "name": "to",
          "type": "address"
        },
        {
          "indexed": true,
          "internalType": "uint256",
          "name": "tokenId",
          "type": "uint256"
        }
      ],
      "name": "Transfer",
      "type": "event"
    },
    {
      "inputs": [],
      "name": "DEFAULT_ADMIN_ROLE",
      "outputs": [
        {
          "internalType": "bytes32",
          "name": "",
          "type": "bytes32"
        }
      ],
      "stateMutability": "view",
      "type": "function"
    },
    {
      "inputs": [],
      "name": "MINTER_ROLE",
      "outputs": [
        {
          "internalType": "bytes32",
          "name": "",
          "type": "bytes32"
        }
      ],
      "stateMutability": "view",
      "type": "function"
    },
    {
      "inputs": [
        {
          "internalType": "address",
          "name": "to",
          "type": "address"
        },
        {
          "internalType": "uint256",
          "name": "tokenId",
          "type": "uint256"
        }
      ],
      "name": "approve",
      "outputs": [],
      "stateMutability": "nonpayable",
      "type": "function"
    },
    {
      "inputs": [
        {
          "internalType": "address",
          "name": "owner",
          "type": "address"
        }
      ],
      "name": "balanceOf",
      "outputs": [
        {
          "internalType": "uint256",
          "name": "",
          "type": "uint256"
        }
      ],
      "stateMutability": "view",
      "type": "function"
    },
    {
      "inputs": [
        {
          "internalType": "string",
          "name": "_tokenURI",
          "type": "string"
        }
      ],
      "name": "createToken",
      "outputs": [
        {
          "internalType": "uint256",
          "name": "",
          "type": "uint256"
        }
      ],
      "stateMutability": "nonpayable",
      "type": "function"
    },
    {
      "inputs": [
        {
          "internalType": "uint256",
          "name": "tokenId",
          "type": "uint256"
        }
      ],
      "name": "getApproved",
      "outputs": [
        {
          "internalType": "address",
          "name": "",
          "type": "address"
        }
      ],
      "stateMutability": "view",
      "type": "function"
    },
    {
      "inputs": [
        {
          "internalType": "bytes32",
          "name": "role",
          "type": "bytes32"
        }
      ],
      "name": "getRoleAdmin",
      "outputs": [
        {
          "internalType": "bytes32",
          "name": "",
          "type": "bytes32"
        }
      ],
      "stateMutability": "view",
      "type": "function"
    },
    {
      "inputs": [
        {
          "internalType": "address",
          "name": "owner",
          "type": "address"
        }
      ],
      "name": "getTokensOfOwner",
      "outputs": [
        {
          "internalType": "uint256[]",
          "name": "",
          "type": "uint256[]"
        }
      ],
      "stateMutability": "view",
      "type": "function"
    },
    {
      "inputs": [
        {
          "internalType": "address",
          "name": "account",
          "type": "address"
        }
      ],
      "name": "grantMinterRole",
      "outputs": [],
      "stateMutability": "nonpayable",
      "type": "function"
    },
    {
      "inputs": [
        {
          "internalType": "bytes32",
          "name": "role",
          "type": "bytes32"
        },
        {
          "internalType": "address",
          "name": "account",
          "type": "address"
        }
      ],
      "name": "grantRole",
      "outputs": [],
      "stateMutability": "nonpayable",
      "type": "function"
    },
    {
      "inputs": [
        {
          "internalType": "bytes32",
          "name": "role",
          "type": "bytes32"
        },
        {
          "internalType": "address",
          "name": "account",
          "type": "address"
        }
      ],
      "name": "hasRole",
      "outputs": [
        {
          "internalType": "bool",
          "name": "",
          "type": "bool"
        }
      ],
      "stateMutability": "view",
      "type": "function"
    },
    {
      "inputs": [
        {
          "internalType": "address",
          "name": "owner",
          "type": "address"
        },
        {
          "internalType": "address",
          "name": "operator",
          "type": "address"
        }
      ],
      "name": "isApprovedForAll",
      "outputs": [
        {
          "internalType": "bool",
          "name": "",
          "type": "bool"
        }
      ],
      "stateMutability": "view",
      "type": "function"
    },
    {
      "inputs": [],
      "name": "name",
      "outputs": [
        {
          "internalType": "string",
          "name": "",
          "type": "string"
        }
      ],
      "stateMutability": "view",
      "type": "function"
    },
    {
      "inputs": [
        {
          "internalType": "uint256",
          "name": "tokenId",
          "type": "uint256"
        }
      ],
      "name": "ownerOf",
      "outputs": [
        {
          "internalType": "address",
          "name": "",
          "type": "address"
        }
      ],
      "stateMutability": "view",
      "type": "function"
    },
    {
      "inputs": [
        {
          "internalType": "bytes32",
          "name": "role",
          "type": "bytes32"
        },
        {
          "internalType": "address",
          "name": "account",
          "type": "address"
        }
      ],
      "name": "renounceRole",
      "outputs": [],
      "stateMutability": "nonpayable",
      "type": "function"
    },
    {
      "inputs": [
        {
          "internalType": "address",
          "name": "account",
          "type": "address"
        }
      ],
      "name": "revokeMinterRole",
      "outputs": [],
      "stateMutability": "nonpayable",
      "type": "function"
    },
    {
      "inputs": [
        {
          "internalType": "bytes32",
          "name": "role",
          "type": "bytes32"
        },
        {
          "internalType": "address",
          "name": "account",
          "type": "address"
        }
      ],
      "name": "revokeRole",
      "outputs": [],
      "stateMutability": "nonpayable",
      "type": "function"
    },
    {
      "inputs": [
        {
          "internalType": "address",
          "name": "from",
          "type": "address"
        },
        {
          "internalType": "address",
          "name": "to",
          "type": "address"
        },
        {
          "internalType": "uint256",
          "name": "tokenId",
          "type": "uint256"
        }
      ],
      "name": "safeTransferFrom",
      "outputs": [],
      "stateMutability": "nonpayable",
      "type": "function"
    },
    {
      "inputs": [
        {
          "internalType": "address",
          "name": "from",
          "type": "address"
        },
        {
          "internalType": "address",
          "name": "to",
          "type": "address"
        },
        {
          "internalType": "uint256",
          "name": "tokenId",
          "type": "uint256"
        },
        {
          "internalType": "bytes",
          "name": "data",
          "type": "bytes"
        }
      ],
      "name": "safeTransferFrom",
      "outputs": [],
      "stateMutability": "nonpayable",
      "type": "function"
    },
    {
      "inputs": [
        {
          "internalType": "address",
          "name": "operator",
          "type": "address"
        },
        {
          "internalType": "bool",
          "name": "approved",
          "type": "bool"
        }
      ],
      "name": "setApprovalForAll",
      "outputs": [],
      "stateMutability": "nonpayable",
      "type": "function"
    },
    {
      "inputs": [
        {
          "internalType": "bytes4",
          "name": "interfaceId",
          "type": "bytes4"
        }
      ],
      "name": "supportsInterface",
      "outputs": [
        {
          "internalType": "bool",
          "name": "",
          "type": "bool"
        }
      ],
      "stateMutability": "view",
      "type": "function"
    },
    {
      "inputs": [],
      "name": "symbol",
      "outputs": [
        {
          "internalType": "string",
          "name": "",
          "type": "string"
        }
      ],
      "stateMutability": "view",
      "type": "function"
    },
    {
      "inputs": [
        {
          "internalType": "uint256",
          "name": "index",
          "type": "uint256"
        }
      ],
      "name": "tokenByIndex",
      "outputs": [
        {
          "internalType": "uint256",
          "name": "",
          "type": "uint256"
        }
      ],
      "stateMutability": "view",
      "type": "function"
    },
    {
      "inputs": [
        {
          "internalType": "address",
          "name": "owner",
          "type": "address"
        },
        {
          "internalType": "uint256",
          "name": "index",
          "type": "uint256"
        }
      ],
      "name": "tokenOfOwnerByIndex",
      "outputs": [
        {
          "internalType": "uint256",
          "name": "",
          "type": "uint256"
        }
      ],
      "stateMutability": "view",
      "type": "function"
    },
    {
      "inputs": [
        {
          "internalType": "uint256",
          "name": "tokenId",
          "type": "uint256"
        }
      ],
      "name": "tokenURI",
      "outputs": [
        {
          "internalType": "string",
          "name": "",
          "type": "string"
        }
      ],
      "stateMutability": "view",
      "type": "function"
    },
    {
      "inputs": [],
      "name": "totalSupply",
      "outputs": [
        {
          "internalType": "uint256",
          "name": "",
          "type": "uint256"
        }
      ],
      "stateMutability": "view",
      "type": "function"
    },
    {
      "inputs": [
        {
          "internalType": "address",
          "name": "from",
          "type": "address"
        },
        {
          "internalType": "address",
          "name": "to",
          "type": "address"
        },
        {
          "internalType": "uint256",
          "name": "tokenId",
          "type": "uint256"
        }
      ],
      "name": "transferFrom",
      "outputs": [],
      "stateMutability": "nonpayable",
      "type": "function"
    }
  ],
  "bytecode": "0x60806040523480156200001157600080fd5b506040518060400160405280600981526020017f4e46544d61726b657400000000000000000000000000000000000000000000008152506040518060400160405280600481526020017f4e46544d0000000000000000000000000000000000000000000000000000000081525081600090816200008f9190620004ee565b508060019081620000a19190620004ee565b5050506000600b81905550620000c16000801b33620000f960201b60201c565b620000f37f9f2df0fed2c77648de5860a4cc508cd0818c85b8b8a1ab4ceeef8d981c8956a633620000f960201b60201c565b620005d5565b6200010b82826200010f60201b60201c565b5050565b6200012182826200020160201b60201c565b620001fd576001600a600084815260200190815260200160002060000160008373ffffffffffffffffffffffffffffffffffffffff1673ffffffffffffffffffffffffffffffffffffffff16815260200190815260200160002060006101000a81548160ff021916908315150217905550620001a26200026c60201b60201c565b73ffffffffffffffffffffffffffffffffffffffff168173ffffffffffffffffffffffffffffffffffffffff16837f2f8788117e7eff1d82e926ec794901d17c78024a50270940304540a733656f0d60405160405180910390a45b5050565b6000600a600084815260200190815260200160002060000160008373ffffffffffffffffffffffffffffffffffffffff1673ffffffffffffffffffffffffffffffffffffffff16815260200190815260200160002060009054906101000a900460ff16905092915050565b600033905090565b600081519050919050565b7f4e487b7100000000000000000000000000000000000000000000000000000000600052604160045260246000fd5b7f4e487b7100000000000000000000000000000000000000000000000000000000600052602260045260246000fd5b60006002820490506001821680620002f657607f821691505b6020821081036200030c576200030b620002ae565b5b50919050565b60008190508160005260206000209050919050565b60006020601f8301049050919050565b600082821b905092915050565b600060088302620003767fffffffffffffffffffffffffffffffffffffffffffffffffffffffffffffffff8262000337565b62000382868362000337565b95508019841693508086168417925050509392505050565b6000819050919050565b6000819050919050565b6000620003cf620003c9620003c3846200039a565b620003a4565b6200039a565b9050919050565b6000819050919050565b620003eb83620003ae565b62000403620003fa82620003d6565b84845462000344565b825550505050565b600090565b6200041a6200040b565b62000427818484620003e0565b505050565b5b818110156200044f576200044360008262000410565b6001810190506200042d565b5050565b601f8211156200049e57620004688162000312565b620004738462000327565b8101602085101562000483578190505b6200049b620004928562000327565b8301826200042c565b50505b505050565b600082821c905092915050565b6000620004c360001984600802620004a3565b1980831691505092915050565b6000620004de8383620004b0565b9150826002028217905092915050565b620004f98262000274565b67ffffffffffffffff8111156200051557620005146200027f565b5b620005218254620002dd565b6200052e82828562000453565b600060209050601f83116001811462000566576000841562000551578287015190505b6200055d8582620004d0565b865550620005cd565b601f198416620005768662000312565b60005b82811015620005a05784890151825560018201915060208501945060208101905062000579565b86831015620005c05784890151620005bc601f891682620004b0565b8355505b6001600288020188555050505b505050505050565b613e7280620005e56000396000f3fe608060405234801561001057600080fd5b50600436106101a95760003560e01c80634f6ccce7116100f9578063a217fddf11610097578063c87b56dd11610071578063c87b56dd14610502578063d539139314610532578063d547741f14610550578063e985e9c51461056c576101a9565b8063a217fddf146104ac578063a22cb465146104ca578063b88d4fde146104e6576101a9565b806369e2f0fb116100d357806369e2f0fb1461041257806370a082311461042e57806391d148541461045e57806395d89b411461048e576101a9565b80634f6ccce7146103825780635de6dc55146103b25780636352211e146103e2576101a9565b8063248a9ca31161016657806336568abe1161014057806336568abe146102fe5780633dd1eb611461031a57806342842e0e1461033657806345576f9414610352576101a9565b8063248a9ca3146102825780632f2ff15d146102b25780632f745c59146102ce576101a9565b806301ffc9a7146101ae57806306fdde03146101de578063081812fc146101fc578063095ea7b31461022c57806318160ddd1461024857806323b872dd14610266575b600080fd5b6101c860048036038101906101c39190612712565b61059c565b6040516101d5919061275a565b60405180910390f35b6101e66105be565b6040516101f39190612805565b60405180910390f35b6102166004803603810190610211919061285d565b610650565b60405161022391906128cb565b60405180910390f35b61024660048036038101906102419190612912565b610696565b005b6102506107ad565b60405161025d9190612961565b60405180910390f35b610280600480360381019061027b919061297c565b6107ba565b005b61029c60048036038101906102979190612a05565b61081a565b6040516102a99190612a41565b60405180910390f35b6102cc60048036038101906102c79190612a5c565b61083a565b005b6102e860048036038101906102e39190612912565b61085b565b6040516102f59190612961565b60405180910390f35b61031860048036038101906103139190612a5c565b610900565b005b610334600480360381019061032f9190612a9c565b610983565b005b610350600480360381019061034b919061297c565b6109be565b005b61036c60048036038101906103679190612bfe565b6109de565b6040516103799190612961565b60405180910390f35b61039c6004803603810190610397919061285d565b610ad4565b6040516103a99190612961565b60405180910390f35b6103cc60048036038101906103c79190612a9c565b610b45565b6040516103d99190612d05565b60405180910390f35b6103fc60048036038101906103f7919061285d565b610bf3565b60405161040991906128cb565b60405180910390f35b61042c60048036038101906104279190612a9c565b610c79565b005b61044860048036038101906104439190612a9c565b610cb4565b6040516104559190612961565b60405180910390f35b61047860048036038101906104739190612a5c565b610d6b565b604051610485919061275a565b60405180910390f35b610496610dd6565b6040516104a39190612805565b60405180910390f35b6104b4610e68565b6040516104c19190612a41565b60405180910390f35b6104e460048036038101906104df9190612d53565b610e6f565b005b61050060048036038101906104fb9190612e34565b610e85565b005b61051c6004803603810190610517919061285d565b610ee7565b6040516105299190612805565b60405180910390f35b61053a610f8c565b6040516105479190612a41565b60405180910390f35b61056a60048036038101906105659190612a5c565b610fb0565b005b61058660048036038101906105819190612eb7565b610fd1565b604051610593919061275a565b60405180910390f35b60006105a782611065565b806105b757506105b6826110df565b5b9050919050565b6060600080546105cd90612f26565b80601f01602080910402602001604051908101604052809291908181526020018280546105f990612f26565b80156106465780601f1061061b57610100808354040283529160200191610646565b820191906000526020600020905b81548152906001019060200180831161062957829003601f168201915b5050505050905090565b600061065b82611159565b6004600083815260200190815260200160002060009054906101000a900473ffffffffffffffffffffffffffffffffffffffff169050919050565b60006106a182610bf3565b90508073ffffffffffffffffffffffffffffffffffffffff168373ffffffffffffffffffffffffffffffffffffffff1603610711576040517f08c379a000000000000000000000000000000000000000000000000000000000815260040161070890612fc9565b60405180910390fd5b8073ffffffffffffffffffffffffffffffffffffffff166107306111a4565b73ffffffffffffffffffffffffffffffffffffffff16148061075f575061075e816107596111a4565b610fd1565b5b61079e576040517f08c379a00000000000000000000000000000000000000000000000000000000081526004016107959061305b565b60405180910390fd5b6107a883836111ac565b505050565b6000600880549050905090565b6107cb6107c56111a4565b82611265565b61080a576040517f08c379a0000000000000000000000000000000000000000000000000000000008152600401610801906130ed565b60405180910390fd5b6108158383836112fa565b505050565b6000600a6000838152602001908152602001600020600101549050919050565b6108438261081a565b61084c816115f3565b6108568383611607565b505050565b600061086683610cb4565b82106108a7576040517f08c379a000000000000000000000000000000000000000000000000000000000815260040161089e9061317f565b60405180910390fd5b600660008473ffffffffffffffffffffffffffffffffffffffff1673ffffffffffffffffffffffffffffffffffffffff168152602001908152602001600020600083815260200190815260200160002054905092915050565b6109086111a4565b73ffffffffffffffffffffffffffffffffffffffff168173ffffffffffffffffffffffffffffffffffffffff1614610975576040517f08c379a000000000000000000000000000000000000000000000000000000000815260040161096c90613211565b60405180910390fd5b61097f82826116e8565b5050565b6000801b610990816115f3565b6109ba7f9f2df0fed2c77648de5860a4cc508cd0818c85b8b8a1ab4ceeef8d981c8956a68361083a565b5050565b6109d983838360405180602001604052806000815250610e85565b505050565b6000610a0a7f9f2df0fed2c77648de5860a4cc508cd0818c85b8b8a1ab4ceeef8d981c8956a633610d6b565b610a49576040517f08c379a0000000000000000000000000000000000000000000000000000000008152600401610a409061327d565b60405180910390fd5b600b6000815480929190610a5c906132cc565b91905055506000600b549050610a7233826117ca565b610a7c81846119e7565b803373ffffffffffffffffffffffffffffffffffffffff167fdf92894dc4675a7333caa5903b69cf5d8e8ec0d3f361c88207b6688e525703bb85604051610ac39190612805565b60405180910390a380915050919050565b6000610ade6107ad565b8210610b1f576040517f08c379a0000000000000000000000000000000000000000000000000000000008152600401610b1690613386565b60405180910390fd5b60088281548110610b3357610b326133a6565b5b90600052602060002001549050919050565b60606000610b5283610cb4565b905060008167ffffffffffffffff811115610b7057610b6f612ad3565b5b604051908082528060200260200182016040528015610b9e5781602001602082028036833780820191505090505b50905060005b82811015610be857610bb6858261085b565b828281518110610bc957610bc86133a6565b5b6020026020010181815250508080610be0906132cc565b915050610ba4565b508092505050919050565b600080610bff83611a0c565b9050600073ffffffffffffffffffffffffffffffffffffffff168173ffffffffffffffffffffffffffffffffffffffff1603610c70576040517f08c379a0000000000000000000000000000000000000000000000000000000008152600401610c6790613421565b60405180910390fd5b80915050919050565b6000801b610c86816115f3565b610cb07f9f2df0fed2c77648de5860a4cc508cd0818c85b8b8a1ab4ceeef8d981c8956a683610fb0565b5050565b60008073ffffffffffffffffffffffffffffffffffffffff168273ffffffffffffffffffffffffffffffffffffffff1603610d24576040517f08c379a0000000000000000000000000000000000000000000000000000000008152600401610d1b906134b3565b60405180910390fd5b600360008373ffffffffffffffffffffffffffffffffffffffff1673ffffffffffffffffffffffffffffffffffffffff168152602001908152602001600020549050919050565b6000600a600084815260200190815260200160002060000160008373ffffffffffffffffffffffffffffffffffffffff1673ffffffffffffffffffffffffffffffffffffffff16815260200190815260200160002060009054906101000a900460ff16905092915050565b606060018054610de590612f26565b80601f0160208091040260200160405190810160405280929190818152602001828054610e1190612f26565b8015610e5e5780601f10610e3357610100808354040283529160200191610e5e565b820191906000526020600020905b815481529060010190602001808311610e4157829003601f168201915b5050505050905090565b6000801b81565b610e81610e7a6111a4565b8383611a49565b5050565b610e96610e906111a4565b83611265565b610ed5576040517f08c379a0000000000000000000000000000000000000000000000000000000008152600401610ecc906130ed565b60405180910390fd5b610ee184848484611bb5565b50505050565b6060600c60008381526020019081526020016000208054610f0790612f26565b80601f0160208091040260200160405190810160405280929190818152602001828054610f3390612f26565b8015610f805780601f10610f5557610100808354040283529160200191610f80565b820191906000526020600020905b815481529060010190602001808311610f6357829003601f168201915b50505050509050919050565b7f9f2df0fed2c77648de5860a4cc508cd0818c85b8b8a1ab4ceeef8d981c8956a681565b610fb98261081a565b610fc2816115f3565b610fcc83836116e8565b505050565b6000600560008473ffffffffffffffffffffffffffffffffffffffff1673ffffffffffffffffffffffffffffffffffffffff16815260200190815260200160002060008373ffffffffffffffffffffffffffffffffffffffff1673ffffffffffffffffffffffffffffffffffffffff16815260200190815260200160002060009054906101000a900460ff16905092915050565b60007f780e9d63000000000000000000000000000000000000000000000000000000007bffffffffffffffffffffffffffffffffffffffffffffffffffffffff1916827bffffffffffffffffffffffffffffffffffffffffffffffffffffffff191614806110d857506110d782611c11565b5b9050919050565b60007f7965db0b000000000000000000000000000000000000000000000000000000007bffffffffffffffffffffffffffffffffffffffffffffffffffffffff1916827bffffffffffffffffffffffffffffffffffffffffffffffffffffffff19161480611152575061115182611065565b5b9050919050565b61116281611cf3565b6111a1576040517f08c379a000000000000000000000000000000000000000000000000000000000815260040161119890613421565b60405180910390fd5b50565b600033905090565b816004600083815260200190815260200160002060006101000a81548173ffffffffffffffffffffffffffffffffffffffff021916908373ffffffffffffffffffffffffffffffffffffffff160217905550808273ffffffffffffffffffffffffffffffffffffffff1661121f83610bf3565b73ffffffffffffffffffffffffffffffffffffffff167f8c5be1e5ebec7d5bd14f71427d1e84f3dd0314c0f7b2291e5b200ac8c7c3b92560405160405180910390a45050565b60008061127183610bf3565b90508073ffffffffffffffffffffffffffffffffffffffff168473ffffffffffffffffffffffffffffffffffffffff1614806112b357506112b28185610fd1565b5b806112f157508373ffffffffffffffffffffffffffffffffffffffff166112d984610650565b73ffffffffffffffffffffffffffffffffffffffff16145b91505092915050565b8273ffffffffffffffffffffffffffffffffffffffff1661131a82610bf3565b73ffffffffffffffffffffffffffffffffffffffff1614611370576040517f08c379a000000000000000000000000000000000000000000000000000000000815260040161136790613545565b60405180910390fd5b600073ffffffffffffffffffffffffffffffffffffffff168273ffffffffffffffffffffffffffffffffffffffff16036113df576040517f08c379a00000000000000000000000000000000000000000000000000000000081526004016113d6906135d7565b60405180910390fd5b6113ec8383836001611d34565b8273ffffffffffffffffffffffffffffffffffffffff1661140c82610bf3565b73ffffffffffffffffffffffffffffffffffffffff1614611462576040517f08c379a000000000000000000000000000000000000000000000000000000000815260040161145990613545565b60405180910390fd5b6004600082815260200190815260200160002060006101000a81549073ffffffffffffffffffffffffffffffffffffffff02191690556001600360008573ffffffffffffffffffffffffffffffffffffffff1673ffffffffffffffffffffffffffffffffffffffff168152602001908152602001600020600082825403925050819055506001600360008473ffffffffffffffffffffffffffffffffffffffff1673ffffffffffffffffffffffffffffffffffffffff16815260200190815260200160002060008282540192505081905550816002600083815260200190815260200160002060006101000a81548173ffffffffffffffffffffffffffffffffffffffff021916908373ffffffffffffffffffffffffffffffffffffffff160217905550808273ffffffffffffffffffffffffffffffffffffffff168473ffffffffffffffffffffffffffffffffffffffff167fddf252ad1be2c89b69c2b068fc378daa952ba7f163c4a11628f55a4df523b3ef60405160405180910390a46115ee8383836001611e92565b505050565b611604816115ff6111a4565b611e98565b50565b6116118282610d6b565b6116e4576001600a600084815260200190815260200160002060000160008373ffffffffffffffffffffffffffffffffffffffff1673ffffffffffffffffffffffffffffffffffffffff16815260200190815260200160002060006101000a81548160ff0219169083151502179055506116896111a4565b73ffffffffffffffffffffffffffffffffffffffff168173ffffffffffffffffffffffffffffffffffffffff16837f2f8788117e7eff1d82e926ec794901d17c78024a50270940304540a733656f0d60405160405180910390a45b5050565b6116f28282610d6b565b156117c6576000600a600084815260200190815260200160002060000160008373ffffffffffffffffffffffffffffffffffffffff1673ffffffffffffffffffffffffffffffffffffffff16815260200190815260200160002060006101000a81548160ff02191690831515021790555061176b6111a4565b73ffffffffffffffffffffffffffffffffffffffff168173ffffffffffffffffffffffffffffffffffffffff16837ff6391f5c32d9c69d2a47ea670b442974b53935d1edc7fd64eb21e047a839171b60405160405180910390a45b5050565b600073ffffffffffffffffffffffffffffffffffffffff168273ffffffffffffffffffffffffffffffffffffffff1603611839576040517f08c379a000000000000000000000000000000000000000000000000000000000815260040161183090613643565b60405180910390fd5b61184281611cf3565b15611882576040517f08c379a0000000000000000000000000000000000000000000000000000000008152600401611879906136af565b60405180910390fd5b611890600083836001611d34565b61189981611cf3565b156118d9576040517f08c379a00000000000000000000000000000000000000000000000000000000081526004016118d0906136af565b60405180910390fd5b6001600360008473ffffffffffffffffffffffffffffffffffffffff1673ffffffffffffffffffffffffffffffffffffffff16815260200190815260200160002060008282540192505081905550816002600083815260200190815260200160002060006101000a81548173ffffffffffffffffffffffffffffffffffffffff021916908373ffffffffffffffffffffffffffffffffffffffff160217905550808273ffffffffffffffffffffffffffffffffffffffff16600073ffffffffffffffffffffffffffffffffffffffff167fddf252ad1be2c89b69c2b068fc378daa952ba7f163c4a11628f55a4df523b3ef60405160405180910390a46119e3600083836001611e92565b5050565b80600c60008481526020019081526020016000209081611a07919061387b565b505050565b60006002600083815260200190815260200160002060009054906101000a900473ffffffffffffffffffffffffffffffffffffffff169050919050565b8173ffffffffffffffffffffffffffffffffffffffff168373ffffffffffffffffffffffffffffffffffffffff1603611ab7576040517f08c379a0000000000000000000000000000000000000000000000000000000008152600401611aae90613999565b60405180910390fd5b80600560008573ffffffffffffffffffffffffffffffffffffffff1673ffffffffffffffffffffffffffffffffffffffff16815260200190815260200160002060008473ffffffffffffffffffffffffffffffffffffffff1673ffffffffffffffffffffffffffffffffffffffff16815260200190815260200160002060006101000a81548160ff0219169083151502179055508173ffffffffffffffffffffffffffffffffffffffff168373ffffffffffffffffffffffffffffffffffffffff167f17307eab39ab6107e8899845ad3d59bd9653f200f220920489ca2b5937696c3183604051611ba8919061275a565b60405180910390a3505050565b611bc08484846112fa565b611bcc84848484611f1d565b611c0b576040517f08c379a0000000000000000000000000000000000000000000000000000000008152600401611c0290613a2b565b60405180910390fd5b50505050565b60007f80ac58cd000000000000000000000000000000000000000000000000000000007bffffffffffffffffffffffffffffffffffffffffffffffffffffffff1916827bffffffffffffffffffffffffffffffffffffffffffffffffffffffff19161480611cdc57507f5b5e139f000000000000000000000000000000000000000000000000000000007bffffffffffffffffffffffffffffffffffffffffffffffffffffffff1916827bffffffffffffffffffffffffffffffffffffffffffffffffffffffff1916145b80611cec5750611ceb826120a4565b5b9050919050565b60008073ffffffffffffffffffffffffffffffffffffffff16611d1583611a0c565b73ffffffffffffffffffffffffffffffffffffffff1614159050919050565b611d408484848461210e565b6001811115611d84576040517f08c379a0000000000000000000000000000000000000000000000000000000008152600401611d7b90613abd565b60405180910390fd5b6000829050600073ffffffffffffffffffffffffffffffffffffffff168573ffffffffffffffffffffffffffffffffffffffff1603611dcb57611dc681612114565b611e0a565b8373ffffffffffffffffffffffffffffffffffffffff168573ffffffffffffffffffffffffffffffffffffffff1614611e0957611e08858261215d565b5b5b600073ffffffffffffffffffffffffffffffffffffffff168473ffffffffffffffffffffffffffffffffffffffff1603611e4c57611e47816122ca565b611e8b565b8473ffffffffffffffffffffffffffffffffffffffff168473ffffffffffffffffffffffffffffffffffffffff1614611e8a57611e89848261239b565b5b5b5050505050565b50505050565b611ea28282610d6b565b611f1957611eaf8161241a565b611ebd8360001c6020612447565b604051602001611ece929190613bb1565b6040516020818303038152906040526040517f08c379a0000000000000000000000000000000000000000000000000000000008152600401611f109190612805565b60405180910390fd5b5050565b6000611f3e8473ffffffffffffffffffffffffffffffffffffffff16612683565b15612097578373ffffffffffffffffffffffffffffffffffffffff1663150b7a02611f676111a4565b8786866040518563ffffffff1660e01b8152600401611f899493929190613c40565b6020604051808303816000875af1925050508015611fc557506040513d601f19601f82011682018060405250810190611fc29190613ca1565b60015b612047573d8060008114611ff5576040519150601f19603f3d011682016040523d82523d6000602084013e611ffa565b606091505b50600081510361203f576040517f08c379a000000000000000000000000000000000000000000000000000000000815260040161203690613a2b565b60405180910390fd5b805181602001fd5b63150b7a0260e01b7bffffffffffffffffffffffffffffffffffffffffffffffffffffffff1916817bffffffffffffffffffffffffffffffffffffffffffffffffffffffff19161491505061209c565b600190505b949350505050565b60007f01ffc9a7000000000000000000000000000000000000000000000000000000007bffffffffffffffffffffffffffffffffffffffffffffffffffffffff1916827bffffffffffffffffffffffffffffffffffffffffffffffffffffffff1916149050919050565b50505050565b6008805490506009600083815260200190815260200160002081905550600881908060018154018082558091505060019003906000526020600020016000909190919091505550565b6000600161216a84610cb4565b6121749190613cce565b9050600060076000848152602001908152602001600020549050818114612259576000600660008673ffffffffffffffffffffffffffffffffffffffff1673ffffffffffffffffffffffffffffffffffffffff168152602001908152602001600020600084815260200190815260200160002054905080600660008773ffffffffffffffffffffffffffffffffffffffff1673ffffffffffffffffffffffffffffffffffffffff168152602001908152602001600020600084815260200190815260200160002081905550816007600083815260200190815260200160002081905550505b6007600084815260200190815260200160002060009055600660008573ffffffffffffffffffffffffffffffffffffffff1673ffffffffffffffffffffffffffffffffffffffff16815260200190815260200160002060008381526020019081526020016000206000905550505050565b600060016008805490506122de9190613cce565b905060006009600084815260200190815260200160002054905060006008838154811061230e5761230d6133a6565b5b9060005260206000200154905080600883815481106123305761232f6133a6565b5b90600052602060002001819055508160096000838152602001908152602001600020819055506009600085815260200190815260200160002060009055600880548061237f5761237e613d02565b5b6001900381819060005260206000200160009055905550505050565b60006123a683610cb4565b905081600660008573ffffffffffffffffffffffffffffffffffffffff1673ffffffffffffffffffffffffffffffffffffffff168152602001908152602001600020600083815260200190815260200160002081905550806007600084815260200190815260200160002081905550505050565b60606124408273ffffffffffffffffffffffffffffffffffffffff16601460ff16612447565b9050919050565b60606000600283600261245a9190613d31565b6124649190613d73565b67ffffffffffffffff81111561247d5761247c612ad3565b5b6040519080825280601f01601f1916602001820160405280156124af5781602001600182028036833780820191505090505b5090507f3000000000000000000000000000000000000000000000000000000000000000816000815181106124e7576124e66133a6565b5b60200101907effffffffffffffffffffffffffffffffffffffffffffffffffffffffffffff1916908160001a9053507f78000000000000000000000000000000000000000000000000000000000000008160018151811061254b5761254a6133a6565b5b60200101907effffffffffffffffffffffffffffffffffffffffffffffffffffffffffffff1916908160001a9053506000600184600261258b9190613d31565b6125959190613d73565b90505b6001811115612635577f3031323334353637383961626364656600000000000000000000000000000000600f8616601081106125d7576125d66133a6565b5b1a60f81b8282815181106125ee576125ed6133a6565b5b60200101907effffffffffffffffffffffffffffffffffffffffffffffffffffffffffffff1916908160001a905350600485901c94508061262e90613da7565b9050612598565b5060008414612679576040517f08c379a000000000000000000000000000000000000000000000000000000000815260040161267090613e1c565b60405180910390fd5b8091505092915050565b6000808273ffffffffffffffffffffffffffffffffffffffff163b119050919050565b6000604051905090565b600080fd5b600080fd5b60007fffffffff0000000000000000000000000000000000000000000000000000000082169050919050565b6126ef816126ba565b81146126fa57600080fd5b50565b60008135905061270c816126e6565b92915050565b600060208284031215612728576127276126b0565b5b6000612736848285016126fd565b91505092915050565b60008115159050919050565b6127548161273f565b82525050565b600060208201905061276f600083018461274b565b92915050565b600081519050919050565b600082825260208201905092915050565b60005b838110156127af578082015181840152602081019050612794565b60008484015250505050565b6000601f19601f8301169050919050565b60006127d782612775565b6127e18185612780565b93506127f1818560208601612791565b6127fa816127bb565b840191505092915050565b6000602082019050818103600083015261281f81846127cc565b905092915050565b6000819050919050565b61283a81612827565b811461284557600080fd5b50565b60008135905061285781612831565b92915050565b600060208284031215612873576128726126b0565b5b600061288184828501612848565b91505092915050565b600073ffffffffffffffffffffffffffffffffffffffff82169050919050565b60006128b58261288a565b9050919050565b6128c5816128aa565b82525050565b60006020820190506128e060008301846128bc565b92915050565b6128ef816128aa565b81146128fa57600080fd5b50565b60008135905061290c816128e6565b92915050565b60008060408385031215612929576129286126b0565b5b6000612937858286016128fd565b925050602061294885828601612848565b9150509250929050565b61295b81612827565b82525050565b60006020820190506129766000830184612952565b92915050565b600080600060608486031215612995576129946126b0565b5b60006129a3868287016128fd565b93505060206129b4868287016128fd565b92505060406129c586828701612848565b9150509250925092565b6000819050919050565b6129e2816129cf565b81146129ed57600080fd5b50565b6000813590506129ff816129d9565b92915050565b600060208284031215612a1b57612a1a6126b0565b5b6000612a29848285016129f0565b91505092915050565b612a3b816129cf565b82525050565b6000602082019050612a566000830184612a32565b92915050565b60008060408385031215612a7357612a726126b0565b5b6000612a81858286016129f0565b9250506020612a92858286016128fd565b9150509250929050565b600060208284031215612ab257612ab16126b0565b5b6000612ac0848285016128fd565b91505092915050565b600080fd5b600080fd5b7f4e487b7100000000000000000000000000000000000000000000000000000000600052604160045260246000fd5b612b0b826127bb565b810181811067ffffffffffffffff82111715612b2a57612b29612ad3565b5b80604052505050565b6000612b3d6126a6565b9050612b498282612b02565b919050565b600067ffffffffffffffff821115612b6957612b68612ad3565b5b612b72826127bb565b9050602081019050919050565b82818337600083830152505050565b6000612ba1612b9c84612b4e565b612b33565b905082815260208101848484011115612bbd57612bbc612ace565b5b612bc8848285612b7f565b509392505050565b600082601f830112612be557612be4612ac9565b5b8135612bf5848260208601612b8e565b91505092915050565b600060208284031215612c1457612c136126b0565b5b600082013567ffffffffffffffff811115612c3257612c316126b5565b5b612c3e84828501612bd0565b91505092915050565b600081519050919050565b600082825260208201905092915050565b6000819050602082019050919050565b612c7c81612827565b82525050565b6000612c8e8383612c73565b60208301905092915050565b6000602082019050919050565b6000612cb282612c47565b612cbc8185612c52565b9350612cc783612c63565b8060005b83811015612cf8578151612cdf8882612c82565b9750612cea83612c9a565b925050600181019050612ccb565b5085935050505092915050565b60006020820190508181036000830152612d1f8184612ca7565b905092915050565b612d308161273f565b8114612d3b57600080fd5b50565b600081359050612d4d81612d27565b92915050565b60008060408385031215612d6a57612d696126b0565b5b6000612d78858286016128fd565b9250506020612d8985828601612d3e565b9150509250929050565b600067ffffffffffffffff821115612dae57612dad612ad3565b5b612db7826127bb565b9050602081019050919050565b6000612dd7612dd284612d93565b612b33565b905082815260208101848484011115612df357612df2612ace565b5b612dfe848285612b7f565b509392505050565b600082601f830112612e1b57612e1a612ac9565b5b8135612e2b848260208601612dc4565b91505092915050565b60008060008060808587031215612e4e57612e4d6126b0565b5b6000612e5c878288016128fd565b9450506020612e6d878288016128fd565b9350506040612e7e87828801612848565b925050606085013567ffffffffffffffff811115612e9f57612e9e6126b5565b5b612eab87828801612e06565b91505092959194509250565b60008060408385031215612ece57612ecd6126b0565b5b6000612edc858286016128fd565b9250506020612eed858286016128fd565b9150509250929050565b7f4e487b7100000000000000000000000000000000000000000000000000000000600052602260045260246000fd5b60006002820490506001821680612f3e57607f821691505b602082108103612f5157612f50612ef7565b5b50919050565b7f4552433732313a20617070726f76616c20746f2063757272656e74206f776e6560008201527f7200000000000000000000000000000000000000000000000000000000000000602082015250565b6000612fb3602183612780565b9150612fbe82612f57565b604082019050919050565b60006020820190508181036000830152612fe281612fa6565b9050919050565b7f4552433732313a20617070726f76652063616c6c6572206973206e6f7420746f60008201527f6b656e206f776e6572206f7220617070726f76656420666f7220616c6c000000602082015250565b6000613045603d83612780565b915061305082612fe9565b604082019050919050565b6000602082019050818103600083015261307481613038565b9050919050565b7f4552433732313a2063616c6c6572206973206e6f7420746f6b656e206f776e6560008201527f72206f7220617070726f76656400000000000000000000000000000000000000602082015250565b60006130d7602d83612780565b91506130e28261307b565b604082019050919050565b60006020820190508181036000830152613106816130ca565b9050919050565b7f455243373231456e756d657261626c653a206f776e657220696e646578206f7560008201527f74206f6620626f756e6473000000000000000000000000000000000000000000602082015250565b6000613169602b83612780565b91506131748261310d565b604082019050919050565b600060208201905081810360008301526131988161315c565b9050919050565b7f416363657373436f6e74726f6c3a2063616e206f6e6c792072656e6f756e636560008201527f20726f6c657320666f722073656c660000000000000000000000000000000000602082015250565b60006131fb602f83612780565b91506132068261319f565b604082019050919050565b6000602082019050818103600083015261322a816131ee565b9050919050565b7f4d7573742068617665206d696e74657220726f6c6520746f206d696e74000000600082015250565b6000613267601d83612780565b915061327282613231565b602082019050919050565b600060208201905081810360008301526132968161325a565b9050919050565b7f4e487b7100000000000000000000000000000000000000000000000000000000600052601160045260246000fd5b60006132d782612827565b91507fffffffffffffffffffffffffffffffffffffffffffffffffffffffffffffffff82036133095761330861329d565b5b600182019050919050565b7f455243373231456e756d657261626c653a20676c6f62616c20696e646578206f60008201527f7574206f6620626f756e64730000000000000000000000000000000000000000602082015250565b6000613370602c83612780565b915061337b82613314565b604082019050919050565b6000602082019050818103600083015261339f81613363565b9050919050565b7f4e487b7100000000000000000000000000000000000000000000000000000000600052603260045260246000fd5b7f4552433732313a20696e76616c696420746f6b656e2049440000000000000000600082015250565b600061340b601883612780565b9150613416826133d5565b602082019050919050565b6000602082019050818103600083015261343a816133fe565b9050919050565b7f4552433732313a2061646472657373207a65726f206973206e6f74206120766160008201527f6c6964206f776e65720000000000000000000000000000000000000000000000602082015250565b600061349d602983612780565b91506134a882613441565b604082019050919050565b600060208201905081810360008301526134cc81613490565b9050919050565b7f4552433732313a207472616e736665722066726f6d20696e636f72726563742060008201527f6f776e6572000000000000000000000000000000000000000000000000000000602082015250565b600061352f602583612780565b915061353a826134d3565b604082019050919050565b6000602082019050818103600083015261355e81613522565b9050919050565b7f4552433732313a207472616e7366657220746f20746865207a65726f2061646460008201527f7265737300000000000000000000000000000000000000000000000000000000602082015250565b60006135c1602483612780565b91506135cc82613565565b604082019050919050565b600060208201905081810360008301526135f0816135b4565b9050919050565b7f4552433732313a206d696e7420746f20746865207a65726f2061646472657373600082015250565b600061362d602083612780565b9150613638826135f7565b602082019050919050565b6000602082019050818103600083015261365c81613620565b9050919050565b7f4552433732313a20746f6b656e20616c7265616479206d696e74656400000000600082015250565b6000613699601c83612780565b91506136a482613663565b602082019050919050565b600060208201905081810360008301526136c88161368c565b9050919050565b60008190508160005260206000209050919050565b60006020601f8301049050919050565b600082821b905092915050565b6000600883026137317fffffffffffffffffffffffffffffffffffffffffffffffffffffffffffffffff826136f4565b61373b86836136f4565b95508019841693508086168417925050509392505050565b6000819050919050565b600061377861377361376e84612827565b613753565b612827565b9050919050565b6000819050919050565b6137928361375d565b6137a661379e8261377f565b848454613701565b825550505050565b600090565b6137bb6137ae565b6137c6818484613789565b505050565b5b818110156137ea576137df6000826137b3565b6001810190506137cc565b5050565b601f82111561382f57613800816136cf565b613809846136e4565b81016020851015613818578190505b61382c613824856136e4565b8301826137cb565b50505b505050565b600082821c905092915050565b600061385260001984600802613834565b1980831691505092915050565b600061386b8383613841565b9150826002028217905092915050565b61388482612775565b67ffffffffffffffff81111561389d5761389c612ad3565b5b6138a78254612f26565b6138b28282856137ee565b600060209050601f8311600181146138e557600084156138d3578287015190505b6138dd858261385f565b865550613945565b601f1984166138f3866136cf565b60005b8281101561391b578489015182556001820191506020850194506020810190506138f6565b868310156139385784890151613934601f891682613841565b8355505b6001600288020188555050505b505050505050565b7f4552433732313a20617070726f766520746f2063616c6c657200000000000000600082015250565b6000613983601983612780565b915061398e8261394d565b602082019050919050565b600060208201905081810360008301526139b281613976565b9050919050565b7f4552433732313a207472616e7366657220746f206e6f6e20455243373231526560008201527f63656976657220696d706c656d656e7465720000000000000000000000000000602082015250565b6000613a15603283612780565b9150613a20826139b9565b604082019050919050565b60006020820190508181036000830152613a4481613a08565b9050919050565b7f455243373231456e756d657261626c653a20636f6e736563757469766520747260008201527f616e7366657273206e6f7420737570706f727465640000000000000000000000602082015250565b6000613aa7603583612780565b9150613ab282613a4b565b604082019050919050565b60006020820190508181036000830152613ad681613a9a565b9050919050565b600081905092915050565b7f416363657373436f6e74726f6c3a206163636f756e7420000000000000000000600082015250565b6000613b1e601783613add565b9150613b2982613ae8565b601782019050919050565b6000613b3f82612775565b613b498185613add565b9350613b59818560208601612791565b80840191505092915050565b7f206973206d697373696e6720726f6c6520000000000000000000000000000000600082015250565b6000613b9b601183613add565b9150613ba682613b65565b601182019050919050565b6000613bbc82613b11565b9150613bc88285613b34565b9150613bd382613b8e565b9150613bdf8284613b34565b91508190509392505050565b600081519050919050565b600082825260208201905092915050565b6000613c1282613beb565b613c1c8185613bf6565b9350613c2c818560208601612791565b613c35816127bb565b840191505092915050565b6000608082019050613c5560008301876128bc565b613c6260208301866128bc565b613c6f6040830185612952565b8181036060830152613c818184613c07565b905095945050505050565b600081519050613c9b816126e6565b92915050565b600060208284031215613cb757613cb66126b0565b5b6000613cc584828501613c8c565b91505092915050565b6000613cd982612827565b9150613ce483612827565b9250828203905081811115613cfc57613cfb61329d565b5b92915050565b7f4e487b7100000000000000000000000000000000000000000000000000000000600052603160045260246000fd5b6000613d3c82612827565b9150613d4783612827565b9250828202613d5581612827565b91508282048414831517613d6c57613d6b61329d565b5b5092915050565b6000613d7e82612827565b9150613d8983612827565b9250828201905080821115613da157613da061329d565b5b92915050565b6000613db282612827565b915060008203613dc557613dc461329d565b5b600182039050919050565b7f537472696e67733a20686578206c656e67746820696e73756666696369656e74600082015250565b6000613e06602083612780565b9150613e1182613dd0565b602082019050919050565b60006020820190508181036000830152613e3581613df9565b905091905056fea2646970667358221220eb8889807b255d7c86b630aefadf584533156bdc7b40b9afe40360123749ae9a64736f6c63430008120033",
  "linkReferences": {},
  "deployedLinkReferences": {}
}